{
  "contractName": "Billboard",
  "abi": [
    {
      "constant": true,
      "inputs": [],
      "name": "fundsWallet",
      "outputs": [
        {
          "name": "",
          "type": "address"
        }
      ],
      "payable": false,
      "stateMutability": "view",
      "type": "function"
    },
    {
      "constant": true,
      "inputs": [],
      "name": "getMessageHash",
      "outputs": [
        {
          "name": "",
          "type": "bytes32"
        }
      ],
      "payable": false,
      "stateMutability": "view",
      "type": "function"
    },
    {
      "constant": false,
      "inputs": [
        {
          "name": "_message",
          "type": "string"
        }
      ],
      "name": "bid",
      "outputs": [],
      "payable": true,
      "stateMutability": "payable",
      "type": "function"
    },
    {
      "constant": true,
      "inputs": [],
      "name": "isAvailable",
      "outputs": [
        {
          "name": "",
          "type": "bool"
        }
      ],
      "payable": false,
      "stateMutability": "view",
      "type": "function"
    },
    {
      "constant": true,
      "inputs": [],
      "name": "getTimeLeft",
      "outputs": [
        {
          "name": "",
          "type": "uint256"
        }
      ],
      "payable": false,
      "stateMutability": "view",
      "type": "function"
    },
    {
      "constant": true,
      "inputs": [],
      "name": "getMessage",
      "outputs": [
        {
          "name": "",
          "type": "string"
        }
      ],
      "payable": false,
      "stateMutability": "view",
      "type": "function"
    },
    {
      "inputs": [],
      "payable": false,
      "stateMutability": "nonpayable",
      "type": "constructor"
    }
  ],
  "bytecode": "0x6060604052341561000f57600080fd5b60408051908101604052806040805190810160405280600f81526020017f6578616d706c65206d657373616765000000000000000000000000000000000081525081526020013373ffffffffffffffffffffffffffffffffffffffff1681525060008082015181600001908051906020019061008c929190610127565b5060208201518160010160006101000a81548173ffffffffffffffffffffffffffffffffffffffff021916908373ffffffffffffffffffffffffffffffffffffffff1602179055509050506005420160028190555033600360006101000a81548173ffffffffffffffffffffffffffffffffffffffff021916908373ffffffffffffffffffffffffffffffffffffffff1602179055506101cc565b828054600181600116156101000203166002900490600052602060002090601f016020900481019282601f1061016857805160ff1916838001178555610196565b82800160010185558215610196579182015b8281111561019557825182559160200191906001019061017a565b5b5090506101a391906101a7565b5090565b6101c991905b808211156101c55760008160009055506001016101ad565b5090565b90565b61054a806101db6000396000f300606060405260043610610078576000357c0100000000000000000000000000000000000000000000000000000000900463ffffffff1680632194f3a21461007d5780633758b996146100d25780637aef951c14610103578063856c71dd14610155578063c7e284b814610182578063ce6d41de146101ab575b600080fd5b341561008857600080fd5b610090610239565b604051808273ffffffffffffffffffffffffffffffffffffffff1673ffffffffffffffffffffffffffffffffffffffff16815260200191505060405180910390f35b34156100dd57600080fd5b6100e561025f565b60405180826000191660001916815260200191505060405180910390f35b610153600480803590602001908201803590602001908080601f016020809104026020016040519081016040528093929190818152602001838380828437820191505050505050919050506102d2565b005b341561016057600080fd5b61016861036c565b604051808215151515815260200191505060405180910390f35b341561018d57600080fd5b610195610378565b6040518082815260200191505060405180910390f35b34156101b657600080fd5b6101be610398565b6040518080602001828103825283818151815260200191508051906020019080838360005b838110156101fe5780820151818401526020810190506101e3565b50505050905090810190601f16801561022b5780820380516001836020036101000a031916815260200191505b509250505060405180910390f35b600360009054906101000a900473ffffffffffffffffffffffffffffffffffffffff1681565b60008060000160405180828054600181600116156101000203166002900480156102c05780601f1061029e5761010080835404028352918201916102c0565b820191906000526020600020905b8154815290600101906020018083116102ac575b50509150506040518091039020905090565b600254421115156102e257600080fd5b806000800190805190602001906102fa929190610465565b50600134024201600281905550600360009054906101000a900473ffffffffffffffffffffffffffffffffffffffff1673ffffffffffffffffffffffffffffffffffffffff166108fc349081150290604051600060405180830381858888f19350505050151561036957600080fd5b50565b60006002544211905090565b600060025442111561038d5760009050610395565b600254420390505b90565b6103a06104e5565b6002544211156103c25760206040519081016040528060008152509050610462565b600080018054600181600116156101000203166002900480601f01602080910402602001604051908101604052809291908181526020018280546001816001161561010002031660029004801561045a5780601f1061042f5761010080835404028352916020019161045a565b820191906000526020600020905b81548152906001019060200180831161043d57829003601f168201915b505050505090505b90565b828054600181600116156101000203166002900490600052602060002090601f016020900481019282601f106104a657805160ff19168380011785556104d4565b828001600101855582156104d4579182015b828111156104d35782518255916020019190600101906104b8565b5b5090506104e191906104f9565b5090565b602060405190810160405280600081525090565b61051b91905b808211156105175760008160009055506001016104ff565b5090565b905600a165627a7a72305820f0a4edea87c34c87538e8b8048a6adbcbce4a80fd3eab3936dd4e6d8c1897dbb0029",
  "source": "pragma solidity ^0.4.15;\n\ncontract Billboard {\n  struct Message {\n    string content;\n    address owner;\n  }\n\n  Message current;\n  uint timelimit;\n  address public fundsWallet;\n\n  modifier expired() {\n    require(now > timelimit);\n    _;\n  }\n\n  function Billboard() public {\n    current = Message(\"example message\", msg.sender);\n    timelimit = now + 5 seconds;\n    fundsWallet = msg.sender;\n  }\n\n  function bid(string _message) payable public expired {\n    current.content = _message;\n    timelimit = now + (msg.value * 1 seconds);\n    // transfer to wallet\n    fundsWallet.transfer(msg.value);\n  }\n\n  function isAvailable() public view returns (bool){\n    return now > timelimit;\n  }\n\n  function getTimeLeft() public view returns (uint){\n    if(now > timelimit){\n      return 0;\n    } else {\n      return now - timelimit;\n    }\n  }\n\n  function getMessage() public view returns (string){\n    if(now > timelimit){\n      return \"\";\n    } else {\n      return current.content;\n    }\n  }\n\n  function getMessageHash() public view returns (bytes32){\n    return keccak256(current.content);\n  }\n\n}\n",
  "sourcePath": "/Users/ruiramos/projects/eth/billboard/contracts/Billboard.sol",
  "compiler": {
    "name": "solc",
    "version": "0.4.18+commit.9cf6e910.Emscripten.clang"
  },
  "schemaVersion": "1.0.1",
  "updatedAt": "2018-01-14T09:35:18.137Z"
}