{
  "contractName": "Billboard",
  "abi": [
    {
      "constant": true,
      "inputs": [],
      "name": "getMessageHash",
      "outputs": [
        {
          "name": "",
          "type": "bytes32"
        }
      ],
      "payable": false,
      "stateMutability": "view",
      "type": "function"
    },
    {
      "constant": false,
      "inputs": [
        {
          "name": "_message",
          "type": "string"
        }
      ],
      "name": "bid",
      "outputs": [],
      "payable": true,
      "stateMutability": "payable",
      "type": "function"
    },
    {
      "constant": true,
      "inputs": [],
      "name": "isAvailable",
      "outputs": [
        {
          "name": "",
          "type": "bool"
        }
      ],
      "payable": false,
      "stateMutability": "view",
      "type": "function"
    },
    {
      "constant": true,
      "inputs": [],
      "name": "getTimeLeft",
      "outputs": [
        {
          "name": "",
          "type": "uint256"
        }
      ],
      "payable": false,
      "stateMutability": "view",
      "type": "function"
    },
    {
      "constant": true,
      "inputs": [],
      "name": "getMessage",
      "outputs": [
        {
          "name": "",
          "type": "string"
        }
      ],
      "payable": false,
      "stateMutability": "view",
      "type": "function"
    },
    {
      "inputs": [],
      "payable": false,
      "stateMutability": "nonpayable",
      "type": "constructor"
    }
  ],
  "bytecode": "0x6060604052341561000f57600080fd5b60408051908101604052806040805190810160405280600f81526020017f6578616d706c65206d657373616765000000000000000000000000000000000081525081526020013373ffffffffffffffffffffffffffffffffffffffff1681525060008082015181600001908051906020019061008c929190610127565b5060208201518160010160006101000a81548173ffffffffffffffffffffffffffffffffffffffff021916908373ffffffffffffffffffffffffffffffffffffffff1602179055509050506005420160028190555033600360006101000a81548173ffffffffffffffffffffffffffffffffffffffff021916908373ffffffffffffffffffffffffffffffffffffffff1602179055506101cc565b828054600181600116156101000203166002900490600052602060002090601f016020900481019282601f1061016857805160ff1916838001178555610196565b82800160010185558215610196579182015b8281111561019557825182559160200191906001019061017a565b5b5090506101a391906101a7565b5090565b6101c991905b808211156101c55760008160009055506001016101ad565b5090565b90565b6104f1806101db6000396000f30060606040526004361061006d576000357c0100000000000000000000000000000000000000000000000000000000900463ffffffff1680633758b996146100725780637aef951c146100a3578063856c71dd146100f5578063c7e284b814610122578063ce6d41de1461014b575b600080fd5b341561007d57600080fd5b6100856101d9565b60405180826000191660001916815260200191505060405180910390f35b6100f3600480803590602001908201803590602001908080601f0160208091040260200160405190810160405280939291908181526020018383808284378201915050505050509190505061024c565b005b341561010057600080fd5b6101086102ee565b604051808215151515815260200191505060405180910390f35b341561012d57600080fd5b6101356102fa565b6040518082815260200191505060405180910390f35b341561015657600080fd5b61015e61031d565b6040518080602001828103825283818151815260200191508051906020019080838360005b8381101561019e578082015181840152602081019050610183565b50505050905090810190601f1680156101cb5780820380516001836020036101000a031916815260200191505b509250505060405180910390f35b600080600001604051808280546001816001161561010002031660029004801561023a5780601f1061021857610100808354040283529182019161023a565b820191906000526020600020905b815481529060010190602001808311610226575b50509150506040518091039020905090565b6102546102ee565b151561025f57600080fd5b8060008001908051906020019061027792919061040c565b50610281346103ed565b4201600281905550600360009054906101000a900473ffffffffffffffffffffffffffffffffffffffff1673ffffffffffffffffffffffffffffffffffffffff166108fc349081150290604051600060405180830381858888f1935050505015156102eb57600080fd5b50565b60006002544211905090565b60006103046102ee565b15610312576000905061031a565b426002540390505b90565b61032561048c565b61032d6102ee565b1561034a57602060405190810160405280600081525090506103ea565b600080018054600181600116156101000203166002900480601f0160208091040260200160405190810160405280929190818152602001828054600181600116156101000203166002900480156103e25780601f106103b7576101008083540402835291602001916103e2565b820191906000526020600020905b8154815290600101906020018083116103c557829003601f168201915b505050505090505b90565b6000600166038d7ea4c680008381151561040357fe5b04029050919050565b828054600181600116156101000203166002900490600052602060002090601f016020900481019282601f1061044d57805160ff191683800117855561047b565b8280016001018555821561047b579182015b8281111561047a57825182559160200191906001019061045f565b5b50905061048891906104a0565b5090565b602060405190810160405280600081525090565b6104c291905b808211156104be5760008160009055506001016104a6565b5090565b905600a165627a7a72305820a852ab31cb80c507ff957ea35c6924622d1b2c4dfe0ecc20b1d8edc4a50ce59c0029",
  "source": "pragma solidity ^0.4.15;\n\ncontract Billboard {\n  struct Message {\n    string content;\n    address owner;\n  }\n\n  Message current;\n  uint timelimit;\n  address fundsWallet;\n\n  function Billboard() public {\n    current = Message(\"example message\", msg.sender);\n    timelimit = now + 5;\n    fundsWallet = msg.sender;\n  }\n\n  function isAvailable() public view returns (bool){\n    return now > timelimit;\n  }\n\n  modifier expired() {\n    require(isAvailable());\n    _;\n  }\n\n  function bid(string _message) payable public expired {\n    current.content = _message;\n    timelimit = now + calcTime(msg.value);\n    // transfer to wallet\n    fundsWallet.transfer(msg.value);\n  }\n\n  function calcTime(uint _value) internal pure returns (uint){\n\n    return (_value / 10**15) * 1 seconds;\n  }\n\n  function getTimeLeft() public view returns (uint){\n    if(isAvailable()){\n      return 0;\n    } else {\n      return timelimit - now;\n    }\n  }\n\n  function getMessage() public view returns (string){\n    if(isAvailable()){\n      return \"\";\n    } else {\n      return current.content;\n    }\n  }\n\n  function getMessageHash() public view returns (bytes32){\n    return keccak256(current.content);\n  }\n\n}\n",
  "sourcePath": "/Users/ruiramos/projects/eth/billboard/contracts/Billboard.sol",
  "compiler": {
    "name": "solc",
    "version": "0.4.18+commit.9cf6e910.Emscripten.clang"
  },
  "schemaVersion": "1.0.1",
  "updatedAt": "2018-02-10T18:15:58.820Z"
}